{
  "_format": "hh-sol-artifact-1",
  "contractName": "RealEstate",
  "sourceName": "contracts/RealEstate.sol",
  "abi": [
    {
      "inputs": [],
      "stateMutability": "nonpayable",
      "type": "constructor"
    },
    {
      "anonymous": false,
      "inputs": [
        {
          "indexed": true,
          "internalType": "address",
          "name": "owner",
          "type": "address"
        },
        {
          "indexed": true,
          "internalType": "address",
          "name": "approved",
          "type": "address"
        },
        {
          "indexed": true,
          "internalType": "uint256",
          "name": "tokenId",
          "type": "uint256"
        }
      ],
      "name": "Approval",
      "type": "event"
    },
    {
      "anonymous": false,
      "inputs": [
        {
          "indexed": true,
          "internalType": "address",
          "name": "owner",
          "type": "address"
        },
        {
          "indexed": true,
          "internalType": "address",
          "name": "operator",
          "type": "address"
        },
        {
          "indexed": false,
          "internalType": "bool",
          "name": "approved",
          "type": "bool"
        }
      ],
      "name": "ApprovalForAll",
      "type": "event"
    },
    {
      "anonymous": false,
      "inputs": [
        {
          "indexed": true,
          "internalType": "address",
          "name": "from",
          "type": "address"
        },
        {
          "indexed": true,
          "internalType": "address",
          "name": "to",
          "type": "address"
        },
        {
          "indexed": true,
          "internalType": "uint256",
          "name": "tokenId",
          "type": "uint256"
        }
      ],
      "name": "Transfer",
      "type": "event"
    },
    {
      "inputs": [
        {
          "internalType": "address",
          "name": "to",
          "type": "address"
        },
        {
          "internalType": "uint256",
          "name": "tokenId",
          "type": "uint256"
        }
      ],
      "name": "approve",
      "outputs": [],
      "stateMutability": "nonpayable",
      "type": "function"
    },
    {
      "inputs": [
        {
          "internalType": "address",
          "name": "owner",
          "type": "address"
        }
      ],
      "name": "balanceOf",
      "outputs": [
        {
          "internalType": "uint256",
          "name": "",
          "type": "uint256"
        }
      ],
      "stateMutability": "view",
      "type": "function"
    },
    {
      "inputs": [
        {
          "internalType": "uint256",
          "name": "tokenId",
          "type": "uint256"
        }
      ],
      "name": "getApproved",
      "outputs": [
        {
          "internalType": "address",
          "name": "",
          "type": "address"
        }
      ],
      "stateMutability": "view",
      "type": "function"
    },
    {
      "inputs": [
        {
          "internalType": "address",
          "name": "owner",
          "type": "address"
        },
        {
          "internalType": "address",
          "name": "operator",
          "type": "address"
        }
      ],
      "name": "isApprovedForAll",
      "outputs": [
        {
          "internalType": "bool",
          "name": "",
          "type": "bool"
        }
      ],
      "stateMutability": "view",
      "type": "function"
    },
    {
      "inputs": [
        {
          "internalType": "string",
          "name": "tokenURI",
          "type": "string"
        }
      ],
      "name": "mint",
      "outputs": [
        {
          "internalType": "uint256",
          "name": "",
          "type": "uint256"
        }
      ],
      "stateMutability": "nonpayable",
      "type": "function"
    },
    {
      "inputs": [],
      "name": "name",
      "outputs": [
        {
          "internalType": "string",
          "name": "",
          "type": "string"
        }
      ],
      "stateMutability": "view",
      "type": "function"
    },
    {
      "inputs": [
        {
          "internalType": "uint256",
          "name": "tokenId",
          "type": "uint256"
        }
      ],
      "name": "ownerOf",
      "outputs": [
        {
          "internalType": "address",
          "name": "",
          "type": "address"
        }
      ],
      "stateMutability": "view",
      "type": "function"
    },
    {
      "inputs": [
        {
          "internalType": "address",
          "name": "from",
          "type": "address"
        },
        {
          "internalType": "address",
          "name": "to",
          "type": "address"
        },
        {
          "internalType": "uint256",
          "name": "tokenId",
          "type": "uint256"
        }
      ],
      "name": "safeTransferFrom",
      "outputs": [],
      "stateMutability": "nonpayable",
      "type": "function"
    },
    {
      "inputs": [
        {
          "internalType": "address",
          "name": "from",
          "type": "address"
        },
        {
          "internalType": "address",
          "name": "to",
          "type": "address"
        },
        {
          "internalType": "uint256",
          "name": "tokenId",
          "type": "uint256"
        },
        {
          "internalType": "bytes",
          "name": "data",
          "type": "bytes"
        }
      ],
      "name": "safeTransferFrom",
      "outputs": [],
      "stateMutability": "nonpayable",
      "type": "function"
    },
    {
      "inputs": [
        {
          "internalType": "address",
          "name": "operator",
          "type": "address"
        },
        {
          "internalType": "bool",
          "name": "approved",
          "type": "bool"
        }
      ],
      "name": "setApprovalForAll",
      "outputs": [],
      "stateMutability": "nonpayable",
      "type": "function"
    },
    {
      "inputs": [
        {
          "internalType": "bytes4",
          "name": "interfaceId",
          "type": "bytes4"
        }
      ],
      "name": "supportsInterface",
      "outputs": [
        {
          "internalType": "bool",
          "name": "",
          "type": "bool"
        }
      ],
      "stateMutability": "view",
      "type": "function"
    },
    {
      "inputs": [],
      "name": "symbol",
      "outputs": [
        {
          "internalType": "string",
          "name": "",
          "type": "string"
        }
      ],
      "stateMutability": "view",
      "type": "function"
    },
    {
      "inputs": [
        {
          "internalType": "uint256",
          "name": "tokenId",
          "type": "uint256"
        }
      ],
      "name": "tokenURI",
      "outputs": [
        {
          "internalType": "string",
          "name": "",
          "type": "string"
        }
      ],
      "stateMutability": "view",
      "type": "function"
    },
    {
      "inputs": [],
      "name": "totalSupply",
      "outputs": [
        {
          "internalType": "uint256",
          "name": "",
          "type": "uint256"
        }
      ],
      "stateMutability": "view",
      "type": "function"
    },
    {
      "inputs": [
        {
          "internalType": "address",
          "name": "from",
          "type": "address"
        },
        {
          "internalType": "address",
          "name": "to",
          "type": "address"
        },
        {
          "internalType": "uint256",
          "name": "tokenId",
          "type": "uint256"
        }
      ],
      "name": "transferFrom",
      "outputs": [],
      "stateMutability": "nonpayable",
      "type": "function"
    }
  ],
  "bytecode": "0x60806040523480156200001157600080fd5b506040518060400160405280600a81526020017f5265616c457374617465000000000000000000000000000000000000000000008152506040518060400160405280600481526020017f5265616c00000000000000000000000000000000000000000000000000000000815250816000908051906020019062000096929190620000b8565b508060019080519060200190620000af929190620000b8565b505050620001cd565b828054620000c69062000197565b90600052602060002090601f016020900481019282620000ea576000855562000136565b82601f106200010557805160ff191683800117855562000136565b8280016001018555821562000136579182015b828111156200013557825182559160200191906001019062000118565b5b50905062000145919062000149565b5090565b5b80821115620001645760008160009055506001016200014a565b5090565b7f4e487b7100000000000000000000000000000000000000000000000000000000600052602260045260246000fd5b60006002820490506001821680620001b057607f821691505b60208210811415620001c757620001c662000168565b5b50919050565b612a9e80620001dd6000396000f3fe608060405234801561001057600080fd5b50600436106100f55760003560e01c80636352211e11610097578063b88d4fde11610066578063b88d4fde14610284578063c87b56dd146102a0578063d85d3d27146102d0578063e985e9c514610300576100f5565b80636352211e146101ea57806370a082311461021a57806395d89b411461024a578063a22cb46514610268576100f5565b8063095ea7b3116100d3578063095ea7b31461017857806318160ddd1461019457806323b872dd146101b257806342842e0e146101ce576100f5565b806301ffc9a7146100fa57806306fdde031461012a578063081812fc14610148575b600080fd5b610114600480360381019061010f9190611b5b565b610330565b6040516101219190611ba3565b60405180910390f35b610132610412565b60405161013f9190611c57565b60405180910390f35b610162600480360381019061015d9190611caf565b6104a4565b60405161016f9190611d1d565b60405180910390f35b610192600480360381019061018d9190611d64565b6104ea565b005b61019c610602565b6040516101a99190611db3565b60405180910390f35b6101cc60048036038101906101c79190611dce565b610613565b005b6101e860048036038101906101e39190611dce565b610673565b005b61020460048036038101906101ff9190611caf565b610693565b6040516102119190611d1d565b60405180910390f35b610234600480360381019061022f9190611e21565b61071a565b6040516102419190611db3565b60405180910390f35b6102526107d2565b60405161025f9190611c57565b60405180910390f35b610282600480360381019061027d9190611e7a565b610864565b005b61029e60048036038101906102999190611fef565b61087a565b005b6102ba60048036038101906102b59190611caf565b6108dc565b6040516102c79190611c57565b60405180910390f35b6102ea60048036038101906102e59190612113565b6109ef565b6040516102f79190611db3565b60405180910390f35b61031a6004803603810190610315919061215c565b610a26565b6040516103279190611ba3565b60405180910390f35b60007f80ac58cd000000000000000000000000000000000000000000000000000000007bffffffffffffffffffffffffffffffffffffffffffffffffffffffff1916827bffffffffffffffffffffffffffffffffffffffffffffffffffffffff191614806103fb57507f5b5e139f000000000000000000000000000000000000000000000000000000007bffffffffffffffffffffffffffffffffffffffffffffffffffffffff1916827bffffffffffffffffffffffffffffffffffffffffffffffffffffffff1916145b8061040b575061040a82610aba565b5b9050919050565b606060008054610421906121cb565b80601f016020809104026020016040519081016040528092919081815260200182805461044d906121cb565b801561049a5780601f1061046f5761010080835404028352916020019161049a565b820191906000526020600020905b81548152906001019060200180831161047d57829003601f168201915b5050505050905090565b60006104af82610b24565b6004600083815260200190815260200160002060009054906101000a900473ffffffffffffffffffffffffffffffffffffffff169050919050565b60006104f582610693565b90508073ffffffffffffffffffffffffffffffffffffffff168373ffffffffffffffffffffffffffffffffffffffff161415610566576040517f08c379a000000000000000000000000000000000000000000000000000000000815260040161055d9061226f565b60405180910390fd5b8073ffffffffffffffffffffffffffffffffffffffff16610585610b6f565b73ffffffffffffffffffffffffffffffffffffffff1614806105b457506105b3816105ae610b6f565b610a26565b5b6105f3576040517f08c379a00000000000000000000000000000000000000000000000000000000081526004016105ea90612301565b60405180910390fd5b6105fd8383610b77565b505050565b600061060e6007610c30565b905090565b61062461061e610b6f565b82610c3e565b610663576040517f08c379a000000000000000000000000000000000000000000000000000000000815260040161065a90612393565b60405180910390fd5b61066e838383610cd3565b505050565b61068e8383836040518060200160405280600081525061087a565b505050565b60008061069f83610fcd565b9050600073ffffffffffffffffffffffffffffffffffffffff168173ffffffffffffffffffffffffffffffffffffffff161415610711576040517f08c379a0000000000000000000000000000000000000000000000000000000008152600401610708906123ff565b60405180910390fd5b80915050919050565b60008073ffffffffffffffffffffffffffffffffffffffff168273ffffffffffffffffffffffffffffffffffffffff16141561078b576040517f08c379a000000000000000000000000000000000000000000000000000000000815260040161078290612491565b60405180910390fd5b600360008373ffffffffffffffffffffffffffffffffffffffff1673ffffffffffffffffffffffffffffffffffffffff168152602001908152602001600020549050919050565b6060600180546107e1906121cb565b80601f016020809104026020016040519081016040528092919081815260200182805461080d906121cb565b801561085a5780601f1061082f5761010080835404028352916020019161085a565b820191906000526020600020905b81548152906001019060200180831161083d57829003601f168201915b5050505050905090565b61087661086f610b6f565b838361100a565b5050565b61088b610885610b6f565b83610c3e565b6108ca576040517f08c379a00000000000000000000000000000000000000000000000000000000081526004016108c190612393565b60405180910390fd5b6108d684848484611177565b50505050565b60606108e782610b24565b6000600660008481526020019081526020016000208054610907906121cb565b80601f0160208091040260200160405190810160405280929190818152602001828054610933906121cb565b80156109805780601f1061095557610100808354040283529160200191610980565b820191906000526020600020905b81548152906001019060200180831161096357829003601f168201915b5050505050905060006109916111d3565b90506000815114156109a75781925050506109ea565b6000825111156109dc5780826040516020016109c49291906124ed565b604051602081830303815290604052925050506109ea565b6109e5846111ea565b925050505b919050565b60006109fb6007611252565b6000610a076007610c30565b9050610a133382611268565b610a1d8184611486565b80915050919050565b6000600560008473ffffffffffffffffffffffffffffffffffffffff1673ffffffffffffffffffffffffffffffffffffffff16815260200190815260200160002060008373ffffffffffffffffffffffffffffffffffffffff1673ffffffffffffffffffffffffffffffffffffffff16815260200190815260200160002060009054906101000a900460ff16905092915050565b60007f01ffc9a7000000000000000000000000000000000000000000000000000000007bffffffffffffffffffffffffffffffffffffffffffffffffffffffff1916827bffffffffffffffffffffffffffffffffffffffffffffffffffffffff1916149050919050565b610b2d816114fa565b610b6c576040517f08c379a0000000000000000000000000000000000000000000000000000000008152600401610b63906123ff565b60405180910390fd5b50565b600033905090565b816004600083815260200190815260200160002060006101000a81548173ffffffffffffffffffffffffffffffffffffffff021916908373ffffffffffffffffffffffffffffffffffffffff160217905550808273ffffffffffffffffffffffffffffffffffffffff16610bea83610693565b73ffffffffffffffffffffffffffffffffffffffff167f8c5be1e5ebec7d5bd14f71427d1e84f3dd0314c0f7b2291e5b200ac8c7c3b92560405160405180910390a45050565b600081600001549050919050565b600080610c4a83610693565b90508073ffffffffffffffffffffffffffffffffffffffff168473ffffffffffffffffffffffffffffffffffffffff161480610c8c5750610c8b8185610a26565b5b80610cca57508373ffffffffffffffffffffffffffffffffffffffff16610cb2846104a4565b73ffffffffffffffffffffffffffffffffffffffff16145b91505092915050565b8273ffffffffffffffffffffffffffffffffffffffff16610cf382610693565b73ffffffffffffffffffffffffffffffffffffffff1614610d49576040517f08c379a0000000000000000000000000000000000000000000000000000000008152600401610d4090612583565b60405180910390fd5b600073ffffffffffffffffffffffffffffffffffffffff168273ffffffffffffffffffffffffffffffffffffffff161415610db9576040517f08c379a0000000000000000000000000000000000000000000000000000000008152600401610db090612615565b60405180910390fd5b610dc6838383600161153b565b8273ffffffffffffffffffffffffffffffffffffffff16610de682610693565b73ffffffffffffffffffffffffffffffffffffffff1614610e3c576040517f08c379a0000000000000000000000000000000000000000000000000000000008152600401610e3390612583565b60405180910390fd5b6004600082815260200190815260200160002060006101000a81549073ffffffffffffffffffffffffffffffffffffffff02191690556001600360008573ffffffffffffffffffffffffffffffffffffffff1673ffffffffffffffffffffffffffffffffffffffff168152602001908152602001600020600082825403925050819055506001600360008473ffffffffffffffffffffffffffffffffffffffff1673ffffffffffffffffffffffffffffffffffffffff16815260200190815260200160002060008282540192505081905550816002600083815260200190815260200160002060006101000a81548173ffffffffffffffffffffffffffffffffffffffff021916908373ffffffffffffffffffffffffffffffffffffffff160217905550808273ffffffffffffffffffffffffffffffffffffffff168473ffffffffffffffffffffffffffffffffffffffff167fddf252ad1be2c89b69c2b068fc378daa952ba7f163c4a11628f55a4df523b3ef60405160405180910390a4610fc88383836001611661565b505050565b60006002600083815260200190815260200160002060009054906101000a900473ffffffffffffffffffffffffffffffffffffffff169050919050565b8173ffffffffffffffffffffffffffffffffffffffff168373ffffffffffffffffffffffffffffffffffffffff161415611079576040517f08c379a000000000000000000000000000000000000000000000000000000000815260040161107090612681565b60405180910390fd5b80600560008573ffffffffffffffffffffffffffffffffffffffff1673ffffffffffffffffffffffffffffffffffffffff16815260200190815260200160002060008473ffffffffffffffffffffffffffffffffffffffff1673ffffffffffffffffffffffffffffffffffffffff16815260200190815260200160002060006101000a81548160ff0219169083151502179055508173ffffffffffffffffffffffffffffffffffffffff168373ffffffffffffffffffffffffffffffffffffffff167f17307eab39ab6107e8899845ad3d59bd9653f200f220920489ca2b5937696c318360405161116a9190611ba3565b60405180910390a3505050565b611182848484610cd3565b61118e84848484611667565b6111cd576040517f08c379a00000000000000000000000000000000000000000000000000000000081526004016111c490612713565b60405180910390fd5b50505050565b606060405180602001604052806000815250905090565b60606111f582610b24565b60006111ff6111d3565b9050600081511161121f576040518060200160405280600081525061124a565b80611229846117fe565b60405160200161123a9291906124ed565b6040516020818303038152906040525b915050919050565b6001816000016000828254019250508190555050565b600073ffffffffffffffffffffffffffffffffffffffff168273ffffffffffffffffffffffffffffffffffffffff1614156112d8576040517f08c379a00000000000000000000000000000000000000000000000000000000081526004016112cf9061277f565b60405180910390fd5b6112e1816114fa565b15611321576040517f08c379a0000000000000000000000000000000000000000000000000000000008152600401611318906127eb565b60405180910390fd5b61132f60008383600161153b565b611338816114fa565b15611378576040517f08c379a000000000000000000000000000000000000000000000000000000000815260040161136f906127eb565b60405180910390fd5b6001600360008473ffffffffffffffffffffffffffffffffffffffff1673ffffffffffffffffffffffffffffffffffffffff16815260200190815260200160002060008282540192505081905550816002600083815260200190815260200160002060006101000a81548173ffffffffffffffffffffffffffffffffffffffff021916908373ffffffffffffffffffffffffffffffffffffffff160217905550808273ffffffffffffffffffffffffffffffffffffffff16600073ffffffffffffffffffffffffffffffffffffffff167fddf252ad1be2c89b69c2b068fc378daa952ba7f163c4a11628f55a4df523b3ef60405160405180910390a4611482600083836001611661565b5050565b61148f826114fa565b6114ce576040517f08c379a00000000000000000000000000000000000000000000000000000000081526004016114c59061287d565b60405180910390fd5b806006600084815260200190815260200160002090805190602001906114f5929190611a4c565b505050565b60008073ffffffffffffffffffffffffffffffffffffffff1661151c83610fcd565b73ffffffffffffffffffffffffffffffffffffffff1614159050919050565b600181111561165b57600073ffffffffffffffffffffffffffffffffffffffff168473ffffffffffffffffffffffffffffffffffffffff16146115cf5780600360008673ffffffffffffffffffffffffffffffffffffffff1673ffffffffffffffffffffffffffffffffffffffff16815260200190815260200160002060008282546115c791906128cc565b925050819055505b600073ffffffffffffffffffffffffffffffffffffffff168373ffffffffffffffffffffffffffffffffffffffff161461165a5780600360008573ffffffffffffffffffffffffffffffffffffffff1673ffffffffffffffffffffffffffffffffffffffff16815260200190815260200160002060008282546116529190612900565b925050819055505b5b50505050565b50505050565b60006116888473ffffffffffffffffffffffffffffffffffffffff166118d6565b156117f1578373ffffffffffffffffffffffffffffffffffffffff1663150b7a026116b1610b6f565b8786866040518563ffffffff1660e01b81526004016116d394939291906129ab565b602060405180830381600087803b1580156116ed57600080fd5b505af192505050801561171e57506040513d601f19601f8201168201806040525081019061171b9190612a0c565b60015b6117a1573d806000811461174e576040519150601f19603f3d011682016040523d82523d6000602084013e611753565b606091505b50600081511415611799576040517f08c379a000000000000000000000000000000000000000000000000000000000815260040161179090612713565b60405180910390fd5b805181602001fd5b63150b7a0260e01b7bffffffffffffffffffffffffffffffffffffffffffffffffffffffff1916817bffffffffffffffffffffffffffffffffffffffffffffffffffffffff1916149150506117f6565b600190505b949350505050565b60606000600161180d846118f9565b01905060008167ffffffffffffffff81111561182c5761182b611ec4565b5b6040519080825280601f01601f19166020018201604052801561185e5781602001600182028036833780820191505090505b509050600082602001820190505b6001156118cb578080600190039150507f3031323334353637383961626364656600000000000000000000000000000000600a86061a8153600a85816118b5576118b4612a39565b5b04945060008514156118c6576118cb565b61186c565b819350505050919050565b6000808273ffffffffffffffffffffffffffffffffffffffff163b119050919050565b600080600090507a184f03e93ff9f4daa797ed6e38ed64bf6a1f0100000000000000008310611957577a184f03e93ff9f4daa797ed6e38ed64bf6a1f010000000000000000838161194d5761194c612a39565b5b0492506040810190505b6d04ee2d6d415b85acef81000000008310611994576d04ee2d6d415b85acef8100000000838161198a57611989612a39565b5b0492506020810190505b662386f26fc1000083106119c357662386f26fc1000083816119b9576119b8612a39565b5b0492506010810190505b6305f5e10083106119ec576305f5e10083816119e2576119e1612a39565b5b0492506008810190505b6127108310611a11576127108381611a0757611a06612a39565b5b0492506004810190505b60648310611a345760648381611a2a57611a29612a39565b5b0492506002810190505b600a8310611a43576001810190505b80915050919050565b828054611a58906121cb565b90600052602060002090601f016020900481019282611a7a5760008555611ac1565b82601f10611a9357805160ff1916838001178555611ac1565b82800160010185558215611ac1579182015b82811115611ac0578251825591602001919060010190611aa5565b5b509050611ace9190611ad2565b5090565b5b80821115611aeb576000816000905550600101611ad3565b5090565b6000604051905090565b600080fd5b600080fd5b60007fffffffff0000000000000000000000000000000000000000000000000000000082169050919050565b611b3881611b03565b8114611b4357600080fd5b50565b600081359050611b5581611b2f565b92915050565b600060208284031215611b7157611b70611af9565b5b6000611b7f84828501611b46565b91505092915050565b60008115159050919050565b611b9d81611b88565b82525050565b6000602082019050611bb86000830184611b94565b92915050565b600081519050919050565b600082825260208201905092915050565b60005b83811015611bf8578082015181840152602081019050611bdd565b83811115611c07576000848401525b50505050565b6000601f19601f8301169050919050565b6000611c2982611bbe565b611c338185611bc9565b9350611c43818560208601611bda565b611c4c81611c0d565b840191505092915050565b60006020820190508181036000830152611c718184611c1e565b905092915050565b6000819050919050565b611c8c81611c79565b8114611c9757600080fd5b50565b600081359050611ca981611c83565b92915050565b600060208284031215611cc557611cc4611af9565b5b6000611cd384828501611c9a565b91505092915050565b600073ffffffffffffffffffffffffffffffffffffffff82169050919050565b6000611d0782611cdc565b9050919050565b611d1781611cfc565b82525050565b6000602082019050611d326000830184611d0e565b92915050565b611d4181611cfc565b8114611d4c57600080fd5b50565b600081359050611d5e81611d38565b92915050565b60008060408385031215611d7b57611d7a611af9565b5b6000611d8985828601611d4f565b9250506020611d9a85828601611c9a565b9150509250929050565b611dad81611c79565b82525050565b6000602082019050611dc86000830184611da4565b92915050565b600080600060608486031215611de757611de6611af9565b5b6000611df586828701611d4f565b9350506020611e0686828701611d4f565b9250506040611e1786828701611c9a565b9150509250925092565b600060208284031215611e3757611e36611af9565b5b6000611e4584828501611d4f565b91505092915050565b611e5781611b88565b8114611e6257600080fd5b50565b600081359050611e7481611e4e565b92915050565b60008060408385031215611e9157611e90611af9565b5b6000611e9f85828601611d4f565b9250506020611eb085828601611e65565b9150509250929050565b600080fd5b600080fd5b7f4e487b7100000000000000000000000000000000000000000000000000000000600052604160045260246000fd5b611efc82611c0d565b810181811067ffffffffffffffff82111715611f1b57611f1a611ec4565b5b80604052505050565b6000611f2e611aef565b9050611f3a8282611ef3565b919050565b600067ffffffffffffffff821115611f5a57611f59611ec4565b5b611f6382611c0d565b9050602081019050919050565b82818337600083830152505050565b6000611f92611f8d84611f3f565b611f24565b905082815260208101848484011115611fae57611fad611ebf565b5b611fb9848285611f70565b509392505050565b600082601f830112611fd657611fd5611eba565b5b8135611fe6848260208601611f7f565b91505092915050565b6000806000806080858703121561200957612008611af9565b5b600061201787828801611d4f565b945050602061202887828801611d4f565b935050604061203987828801611c9a565b925050606085013567ffffffffffffffff81111561205a57612059611afe565b5b61206687828801611fc1565b91505092959194509250565b600067ffffffffffffffff82111561208d5761208c611ec4565b5b61209682611c0d565b9050602081019050919050565b60006120b66120b184612072565b611f24565b9050828152602081018484840111156120d2576120d1611ebf565b5b6120dd848285611f70565b509392505050565b600082601f8301126120fa576120f9611eba565b5b813561210a8482602086016120a3565b91505092915050565b60006020828403121561212957612128611af9565b5b600082013567ffffffffffffffff81111561214757612146611afe565b5b612153848285016120e5565b91505092915050565b6000806040838503121561217357612172611af9565b5b600061218185828601611d4f565b925050602061219285828601611d4f565b9150509250929050565b7f4e487b7100000000000000000000000000000000000000000000000000000000600052602260045260246000fd5b600060028204905060018216806121e357607f821691505b602082108114156121f7576121f661219c565b5b50919050565b7f4552433732313a20617070726f76616c20746f2063757272656e74206f776e6560008201527f7200000000000000000000000000000000000000000000000000000000000000602082015250565b6000612259602183611bc9565b9150612264826121fd565b604082019050919050565b600060208201905081810360008301526122888161224c565b9050919050565b7f4552433732313a20617070726f76652063616c6c6572206973206e6f7420746f60008201527f6b656e206f776e6572206f7220617070726f76656420666f7220616c6c000000602082015250565b60006122eb603d83611bc9565b91506122f68261228f565b604082019050919050565b6000602082019050818103600083015261231a816122de565b9050919050565b7f4552433732313a2063616c6c6572206973206e6f7420746f6b656e206f776e6560008201527f72206f7220617070726f76656400000000000000000000000000000000000000602082015250565b600061237d602d83611bc9565b915061238882612321565b604082019050919050565b600060208201905081810360008301526123ac81612370565b9050919050565b7f4552433732313a20696e76616c696420746f6b656e2049440000000000000000600082015250565b60006123e9601883611bc9565b91506123f4826123b3565b602082019050919050565b60006020820190508181036000830152612418816123dc565b9050919050565b7f4552433732313a2061646472657373207a65726f206973206e6f74206120766160008201527f6c6964206f776e65720000000000000000000000000000000000000000000000602082015250565b600061247b602983611bc9565b91506124868261241f565b604082019050919050565b600060208201905081810360008301526124aa8161246e565b9050919050565b600081905092915050565b60006124c782611bbe565b6124d181856124b1565b93506124e1818560208601611bda565b80840191505092915050565b60006124f982856124bc565b915061250582846124bc565b91508190509392505050565b7f4552433732313a207472616e736665722066726f6d20696e636f72726563742060008201527f6f776e6572000000000000000000000000000000000000000000000000000000602082015250565b600061256d602583611bc9565b915061257882612511565b604082019050919050565b6000602082019050818103600083015261259c81612560565b9050919050565b7f4552433732313a207472616e7366657220746f20746865207a65726f2061646460008201527f7265737300000000000000000000000000000000000000000000000000000000602082015250565b60006125ff602483611bc9565b915061260a826125a3565b604082019050919050565b6000602082019050818103600083015261262e816125f2565b9050919050565b7f4552433732313a20617070726f766520746f2063616c6c657200000000000000600082015250565b600061266b601983611bc9565b915061267682612635565b602082019050919050565b6000602082019050818103600083015261269a8161265e565b9050919050565b7f4552433732313a207472616e7366657220746f206e6f6e20455243373231526560008201527f63656976657220696d706c656d656e7465720000000000000000000000000000602082015250565b60006126fd603283611bc9565b9150612708826126a1565b604082019050919050565b6000602082019050818103600083015261272c816126f0565b9050919050565b7f4552433732313a206d696e7420746f20746865207a65726f2061646472657373600082015250565b6000612769602083611bc9565b915061277482612733565b602082019050919050565b600060208201905081810360008301526127988161275c565b9050919050565b7f4552433732313a20746f6b656e20616c7265616479206d696e74656400000000600082015250565b60006127d5601c83611bc9565b91506127e08261279f565b602082019050919050565b60006020820190508181036000830152612804816127c8565b9050919050565b7f45524337323155524953746f726167653a2055524920736574206f66206e6f6e60008201527f6578697374656e7420746f6b656e000000000000000000000000000000000000602082015250565b6000612867602e83611bc9565b91506128728261280b565b604082019050919050565b600060208201905081810360008301526128968161285a565b9050919050565b7f4e487b7100000000000000000000000000000000000000000000000000000000600052601160045260246000fd5b60006128d782611c79565b91506128e283611c79565b9250828210156128f5576128f461289d565b5b828203905092915050565b600061290b82611c79565b915061291683611c79565b9250827fffffffffffffffffffffffffffffffffffffffffffffffffffffffffffffffff0382111561294b5761294a61289d565b5b828201905092915050565b600081519050919050565b600082825260208201905092915050565b600061297d82612956565b6129878185612961565b9350612997818560208601611bda565b6129a081611c0d565b840191505092915050565b60006080820190506129c06000830187611d0e565b6129cd6020830186611d0e565b6129da6040830185611da4565b81810360608301526129ec8184612972565b905095945050505050565b600081519050612a0681611b2f565b92915050565b600060208284031215612a2257612a21611af9565b5b6000612a30848285016129f7565b91505092915050565b7f4e487b7100000000000000000000000000000000000000000000000000000000600052601260045260246000fdfea26469706673582212206b13e17a0e1bc96ebed369625bb3f448a06eb64b962031eeb696614cba6826a364736f6c63430008090033",
  "linkReferences": {},
  "deployedLinkReferences": {}
}